:020000040000FA
:100000000002001071010000790100007B01000076
:100010007D0100007F010000810100000000000060
:10002000000000000000000000000000830100004C
:100030008501000000000000870100008901000028
:100040008B010000C52F00008B0100008B01000018
:100050008B0100008B0100008B0100008B01000070
:100060008B0100008B0100008B0100008B01000060
:100070008B0100008B0100008B0100008B01000050
:100080008B0100008B0100008B0100008B01000040
:100090008B0100008B0100008B0100008B01000030
:1000A0008B0100008B0100008B0100008B01000020
:1000B0008B0100008B0100008B0100008B01000010
:1000C0008B0100008B0100008B01000000F002F8A2
:1000D00000F03FF80AA090E8000C82448344AAF1A3
:1000E0000107DA4501D100F034F8AFF2090EBAE8A1
:1000F0000F0013F0010F18BFFB1A43F0010318475C
:10010000FC3900002C3A0000103A24BF78C878C1AE
:10011000FAD8520724BF30C830C144BF04680C600D
:10012000704700000023002400250026103A28BF55
:1001300078C1FBD8520728BF30C148BF0B60704759
:10014000642902F0E587002070471FB51FBD10B578
:1001500010BD03F027F91146FFF7F7FF01F0CAFEC3
:1001600003F045F903B4FFF7F2FF03BC03F048F9CD
:100170000948804709480047FEE7FEE7FEE7FEE73B
:10018000FEE7FEE7FEE7FEE7FEE7FEE70448054977
:10019000034A054B70470000E5030000CD00000056
:1001A000D8C00720000200100000001010B53C4A23
:1001B0000323202801D3A0F120000ED202F5D4722F
:1001C000146803FA00F324EA03041460136801FAC4
:1001D00000F143EA0103136010BD02F5D672146802
:1001E00003FA00F324EA03041460136801FA00F12F
:1001F00043EA0103136010BD2949202802D2D1F837
:10020000A81102E02038D1F8AC11C14001F0030080
:10021000704700B523490A68FFF7EEFF30B10128A7
:1002200007D0022805D0032803D101E0042000E014
:100230000820B2FBF0F000BD194A1B4B012907D082
:10024000002904D152F8C41F83431940116070473C
:1002500052F8C41F18400143116070471049002034
:10026000C031086030BF70471049042008600C4955
:100270000820C031086030BF70470C490420086076
:1002800007490920C031086030BF70470749042082
:10029000086003490320C031086030BF7047000088
:1002A00000C00F4000C00720DEF7EFEF10ED00E0C8
:1002B0000FB41CB5084B06AA7B446946009005980C
:1002C00003F05DF804460020694600F00AF8204675
:1002D0001CBC5DF814FB000027000000704770474D
:1002E00070470A6802F8010B0A60704700487047BF
:1002F00078C007207047000000000000FFFFFFFFEC
:10030000624AD2F8880062496FEA1060800713D011
:10031000D2F80C0110F0030005D001284FD00228BC
:1003200056D0032807D1D2F804015A4AC0B2401C63
:10033000B2FBF0F008607047D2F80C0110F0030037
:1003400005D0012816D0022827D00328F3D152F86F
:10035000880FC0F30740D36F401CDBB25B1C1268F0
:100360005843C2F30E024C4B521C5A43B2FBF0F0FE
:100370000860704752F8880FC0F30740D36F401CE5
:10038000DBB25B1C12685843C2F30E02434B521C93
:100390005A43B2FBF0F00860704752F8880FC0F380
:1003A0000740D36F401CDBB25B1C12685843C2F39A
:1003B0000E02521C1204B2FBF0F008607047D2F833
:1003C0000401374AC0B2401CB2FBF0F0086070472D
:1003D000D2F804014FF40042C0B2401CB2FBF0F06E
:1003E0000860704770B529482021C0F8A011D0F8E6
:1003F000A011890603D5D0F8A0114906FBD5032525
:100400008030C0F884500024C0F82841C0F82C4146
:100410000126C0F88C6023494160AA22C26055239E
:10042000C3600660C260C3608038D0F8881049019C
:10043000FBD540F8805FC260C3608038D0F8881078
:1004400011F0407FFAD02321A0304160C260C36028
:100450000660C260C360A038D0F8A8104905FBD57B
:1004600040F8A05FC260C360A038D0F8A81011F4B3
:10047000407FFAD00C49C0F8C410C0F8C84143F21C
:100480003A0101600948046070BD000000C00F40DF
:1004900000C0072000093D0000127A0000366E01FE
:1004A000001BB70063000500DE87280408ED00E0AC
:1004B00001460020052905D2DFE801F00305080BFD
:1004C0000E00BD487047BC4820307047BA484030E5
:1004D0007047B94860307047B74880307047014670
:1004E0000020052905D2DFE801F00305080B0E0006
:1004F000B1487047B04820307047AF48403070472F
:10050000AD4860307047AC488030704701460020ED
:10051000052905D2DFE801F00305080B0E00A64807
:100520007047A54820307047A34840307047A24824
:1005300060307047A0488030704770B50C46154653
:10054000FFF7B6FF002803D01DB101682143016009
:1005500070BD0168A143016070BD10B50C46FFF786
:10056000A7FF002800D0846110BD10B50C46FFF72E
:100570009FFF002800D0C46110BD10B5FFF798FFA1
:1005800008B1406910BD002010BD10B58B4B50EA7A
:10059000020402D0022803D003E0C3F8901010BD7B
:1005A0000AB118B104E0C3F8B01010BD012A02D09E
:1005B000022803D004E0C3F8941010BD012A00D033
:1005C000FEE7C3F8B41010BD10B57C4B50EA02042E
:1005D00002D0022806D006E0D3F88400C84000F01C
:1005E000010010BD0AB130B107E0D3F8A400C84043
:1005F00000F0010010BD012A02D0022806D007E059
:10060000D3F88800C84000F0010010BD012A00D0D6
:10061000FEE7D3F8A800C84000F0010010BD674A0B
:10062000002802D0022803D0FEE7C2F88C107047E1
:10063000C2F8AC10704780E78FE796E79DE7A4E724
:10064000C2E7ECE770B50C461546FFF731FF00280E
:1006500003D01DB101692143016170BD0169A1434E
:10066000016170BD70B50D4614461E46FFF737FF99
:10067000002804D046B11DB141882143418070BD9E
:1006800001882143018070BD1DB14188A143418093
:1006900070BD0188A143018070BD70B50D46144640
:1006A0001E46FFF71CFF002804D046B11DB1418A49
:1006B0002143418270BD018A2143018270BD1DB179
:1006C000418AA143418270BD018AA143018270BD6C
:1006D00070B50D461446FFF702FF002801D00DB19A
:1006E000448370BD048370BD70B50D461446FFF79A
:1006F000F6FE002801D00DB1C48370BD848370BDA7
:1007000010B50C46FFF7EBFE20B10CB1C08A10BD4E
:10071000808A10BD002010BD70B50C4615461E46DF
:10072000FFF7F4FE002805D02EB1032C02D8015D9E
:100730002943015570BD032CFCD8015DA943015527
:1007400070BD70B50C4615461E46FFF7DFFE00284B
:1007500006D036B1032C03D82044017C2943017410
:1007600070BD032CFCD82044017CA943017470BDEA
:1007700070B50C461546FFF7C9FE002803D0032CC0
:1007800001D82044057670BD70B50C461546FFF7BC
:10079000BDFE002803D0032C01D82044057770BD8E
:1007A00010B50C46FFF7B2FE20B1032C02D820444E
:1007B000007D10BD002010BD00C009200080024057
:1007C00030B540002E4B102901D31039401C490090
:1007D00053F8204003258D40AC438A40144343F82E
:1007E000204030BD30B54000254B4033102901D3A7
:1007F0001039401C490053F8204003258D40AC437C
:100800008A40144343F8204030BD10B51C4C683476
:1008100001238B402146012A51F8201003D099432F
:1008200044F8201010BD194344F8201010BD14499D
:10083000012806D0002803D1886A20F008008862C9
:100840007047886A40F0080088627047012800D12C
:10085000052201B90A220A48C267704710B504464A
:10086000A27861782078FFF7ABFFE2786178207892
:10087000FFF7B8FF227961782078BDE81040C4E71F
:1008800000C00240010008D0012909D002290AD085
:1008900003290BD12E20FFF7BCBC0220FFF7B9BC07
:1008A0000420FFF7B6BC2C20FFF7B3BC704770B52F
:1008B0000C46FFF7E7FF002502462B46A2FB04018A
:1008C00003FB041102FB0511F84A002302F082FB2E
:1008D0000246104670BD01464FF0FF30B1F1402F87
:1008E00004D0F34A914203D10120704700207047A1
:1008F000F04A914201D102207047EF4A9142FBD168
:100900000320704770B505460C46B5F1402F0CD05A
:10091000E748854209D0E748854206D0E648854247
:1009200003D0A621E5A001F026FB6CB1012C0BD071
:10093000022C09D0032C07D0042C05D0052C03D0A1
:10094000A721DEA001F017FB28680121A140C9B250
:10095000084008B1012070BD002070BD70B505468B
:100960000C46B5F1402F0CD0D148854209D0D14872
:10097000854206D0D048854203D0C421CFA001F0E3
:10098000FAFA6CB1012C0BD0022C09D0032C07D041
:10099000042C05D0052C03D0C521C8A001F0EBFA2A
:1009A0002868241D0121A140C9B2084008B10120D6
:1009B00070BD002070BD70B505460C46B5F1402FE6
:1009C0000CD0BB48854209D0BA48854206D0BA4807
:1009D000854203D0DD21B9A001F0CDFA6CB1012C24
:1009E0000BD0022C09D0032C07D0042C05D0052CE9
:1009F00003D0DE21B1A001F0BEFA0120A0402860A2
:100A000070BD70B505460C46B5F1402F0CD0A84816
:100A1000854209D0A748854206D0A748854203D021
:100A2000F421A6A001F0A7FA6CB1012C0BD0022C86
:100A300009D0032C07D0042C05D0052C03D0F521B8
:100A40009EA001F098FA241D0120A040286070BDEE
:100A5000002802D0002048707047012008704860CC
:100A600070472DE9F04704460E4615464FF0402AE0
:100A70008F4FDFF84082DFF8409254450AD0BC42E5
:100A800008D0444506D04C4504D040F22B118BA031
:100A900001F071FA36B1012E04D04FF4967187A09F
:100AA00001F069FA544508D101210220FFF7C4FB87
:100AB00000210220FFF77AFB1FE0BC4208D1012190
:100AC0000420FFF7B9FB00210420FFF76FFB14E0BF
:100AD000444508D101218805FFF7AEFB00212C20F9
:100AE000FFF764FB09E04C4507D10121C805FFF77A
:100AF000A3FB00212E20FFF759FBA06A20F0030082
:100B0000A062A06AA0620020A0602061E06060682E
:100B100040F002006060606820F0020060603EB15A
:100B2000A06A20F00C00A062687801280FD012E0C3
:100B3000287840B12046FFF7CEFE6968FFF7B7FE80
:100B4000401EE06007E06868401EE06003E0A06AC5
:100B500040F00400A0624FF0FF302060BDE8F08755
:100B60002DE9F04104464FF04028514D514E524F6F
:100B700044450AD0AC4208D0B44206D0BC4204D0AE
:100B800040F279114DA001F0F6F900206060444573
:100B900005D1BDE8F04100210220FFF74DBBAC427A
:100BA00005D1BDE8F04100210420FFF745BB4FF41B
:100BB0008000B44204D1BDE8F0410021FFF73CBB06
:100BC000BC4204D1BDE8F0410021FFF735BBBDE8D0
:100BD000F08170B504460D46B4F1402F0DD0344875
:100BE00084420AD03348844207D03348844204D038
:100BF0004FF4CD7131A001F0BEF9012D04D0606831
:100C000020F00100606070BD606840F0010060602D
:100C100070BD10B50446B4F1402F0DD02448844275
:100C20000AD02448844207D02348844204D04FF499
:100C3000D97122A001F09FF9606840F00200606065
:100C4000606820F00200606010BD70B504460D467B
:100C5000B4F1402F0DD0164884420AD01548844282
:100C600007D01548844204D040F2D11113A001F0FE
:100C700082F9287950B1012808D0022806D003282B
:100C800004D04FF4E9710DA001F075F9287830B166
:100C9000012807D0022831D0032832D0FEE7A86807
:100CA000A06130E0A868E0612DE0000040420F0044
:100CB0000080004000000940004009402E2E5C4C9E
:100CC00069627261726965735C4C435031373638C2
:100CD0005F5374645065726970685F4472697665C9
:100CE000725C736F757263655C6C706331377878B2
:100CF0005F74696D65722E6300000000A868206251
:100D000001E0A86860626169287800EB4002072072
:100D10009040814361616878012138B16269287827
:100D200000EB400001FA00F002436261E87840B154
:100D30006269287800EB4000401C01FA00F0024391
:100D40006261A87838B16269287800EB4000801CA5
:100D500081400A436261E16B2A78042000EB420380
:100D600003229A409143E16329792A7801F0030133
:100D700000EB42008140E06B0143E16370BD70B560
:100D800004460D461646B4F1402F0ED0404884422A
:100D90000BD04048844208D03F48844205D040F2FE
:100DA0000721AFF2E80001F0E6F835B1012D06D0D9
:100DB000022D06D0032D06D0FEE7A66170BDE661C8
:100DC00070BD266270BD666270BD70B504460D468A
:100DD000B4F1402F0ED02E4884420BD02D488442CF
:100DE00008D02D48844205D040F22D21AFF23410B6
:100DF00001F0C1F8A16A287800EB4002072090407A
:100E00008143A1626878012138B1A26A287800EB99
:100E1000400001FA00F00243A262A87840B1A26A41
:100E2000287800EB4000401C01FA00F00243A26267
:100E3000E878002807D0A26A287800EB4000801CE0
:100E400081400A43A26270BD70B504460D46B4F1FC
:100E5000402F0ED00E4884420BD00E48844208D05A
:100E60000D48844205D04FF41271AFF2B01001F07A
:100E700082F83DB1012D05D040F24921AFF2C410F6
:100E800001F079F80DB1206B70BDE06A70BD000013
:100E90000080004000000940004009402DE9F04179
:100EA00004460E46FD4FFE4DBC4205D0AC4203D079
:100EB0004321FCA001F05FF8BC4204D12A20FFF7D7
:100EC000A8F9054605E0AC421ED11420FFF7A1F9B0
:100ED00005460022531E02200AE0511C4143B5FB87
:100EE000F1F3B34204D9521CFF2A01D90022801C1D
:100EF000B342F2D82168C9B221602168D2B241EA76
:100F000002212160C0B22061BDE8F0812DE9F041ED
:100F100004460D46E14FE24EBC4205D0B44203D038
:100F20008121E0A001F027F8BC4204D1012148054D
:100F3000FFF782F905E0B442E6D101218802FFF70C
:100F40007BF9A88829892A880843298A11430843FC
:100F500080B22060287B00F00F0060602046696945
:100F6000BDE8F0419AE7CFE770B50446CB4ECC4DD3
:100F7000B44205D0AC4203D0A821CAA000F0FBFFC8
:100F8000B44206D1BDE8704000214FF40010FFF7D5
:100F900053B9AC4206D1BDE8704000214FF48060E7
:100FA000FFF74AB970BD10B50446BC48844206D06C
:100FB000BB48844203D0C021BAA000F0DCFF206807
:100FC00000F00F0010BD002141608160C44A426101
:100FD00007220260C1600161704770B504460D468A
:100FE000AE48844206D0AE48844203D0E521ADA08D
:100FF00000F0C1FF2DB1012D03D0E621A9A000F022
:10100000BAFF012D04D0606800F00D00606070BD73
:10101000606840F00200606070BD70B504460D4627
:101020009E48844206D09E48844203D0FE219DA063
:1010300000F0A1FF2DB1012D03D0FF2199A000F0F8
:101040009AFF012D04D0606800F00E00606070BD52
:10105000606840F00100606070BD70B504460D46E8
:101060008E48844207D08E48844204D04FF48D715C
:101070008CA000F080FF35B1012D04D040F21B118F
:1010800088A000F078FF012D04D0606840F00800CF
:10109000606070BD606800F00700606070BD70B592
:1010A00004460D467D48844207D07D48844204D0E2
:1010B0004FF49A717BA000F05EFFA56070BD10B583
:1010C00004467648844207D07548844204D04FF4E1
:1010D000A27174A000F04FFFA06880B210BD2DE98E
:1010E000F05F06460C4617460020E06060606061D5
:1010F00002E03046FFF7E3FFF0684007F9D4032031
:1011000030623046FFF74FFF082801D9012500E083
:10111000002538004FF4807B05D0012F72D04FF0AE
:10112000FF30BDE8F09F25B1D4F80880D4F800A0C6
:1011300050E0A768D4F800904CE0F26892070ED512
:1011400081420CD0206898B125B3BAF8001030461F
:10115000FFF7A5FF0AF1020A6068801C6060B069B1
:10116000C10730D040F4007060614FF0FF30D8E725
:1011700045B14FF6FF713046FFF791FF6068801C64
:101180006060ECE7FF213046FFF789FF6068401C94
:101190006060E4E799F800103046FFF780FF09F13E
:1011A00001096068401C6060D9E73046FFF787FF9F
:1011B000A16821B1DDB1A8F8000008F10208CDB1A5
:1011C000E068801CE060F068400703D5D4E90301C3
:1011D0008842EAD1616820698142AED1E2688242E8
:1011E000ABD1C4F814B0206840B1606899E707F843
:1011F000010BE4E7E068401CE060E4E7A06810B1A0
:10120000E0688EE741E000208BE7206880B10DB3F5
:10121000415A3046FFF743FF6068801C6060B06948
:10122000C1072BD040F4007060614FF0FF3078E7C9
:1012300045B14FF6FF713046FFF731FF6068801C03
:101240006060ECE7FF213046FFF729FF6068401C33
:101250006060E4E7415C3046FFF721FF6068401CB6
:101260006060DCE73046FFF72AFFA16811B1A5B145
:10127000E2688852B5B3E068801CE060F06840071F
:1012800003D5D4E903018842ECD1F068800703D587
:10129000616820698142B8D125E02EE000800840D5
:1012A000000003402E2E5C4C6962726172696573A6
:1012B0005C4C4350313736385F5374645065726903
:1012C00070685F4472697665725C736F757263658E
:1012D0005C6C7063313778785F7373702E630000D5
:1012E00040420F000CE0D4E90310814202D1616852
:1012F000814209D00F20706108E0E2688854B9E7A4
:10130000E068401CE060B9E7C4F814B0002008E7CA
:1013100070B505460C467048854208D06F48854236
:1013200005D04FF40571AFF2840000F024FE012CCB
:101330000DD0022C0BD0042C09D0082C07D0102C77
:1013400005D040F21521AFF2A40000F014FEE868C9
:10135000204201D0012070BD002070BD70B5044650
:101360000D4616465C48844208D05C48844205D04D
:101370004FF40B71AFF2D40000F0FDFD012E05D04B
:1013800060690F21A9430840606170BD606928430E
:10139000606170BD70B505460C464F48854208D067
:1013A0004E48854205D040F24921AFF2081000F0C6
:1013B000E2FD012C0BD0022C09D0042C07D0082C04
:1013C00005D040F24A21AFF2241000F0D4FDA86904
:1013D000204201D0012070BD002070BD10B5044630
:1013E0003D48844208D03D48844205D04FF41671F0
:1013F000AFF2501000F0BFFDA06910BD70B50546FA
:101400000C463548854208D03448854205D040F224
:101410006D21AFF2701000F0AEFD012C0BD0022C4C
:1014200009D0042C07D0082C05D040F26E21AFF271
:101430008C1000F0A0FDE869204201D0012070BDB1
:10144000002070BD70B505460C462348854208D083
:101450002248854205D040F28121AFF2B81000F059
:101460008AFD012C07D0022C05D040F28221AFF278
:10147000CC1000F080FD2C6270BD70B504460D46A6
:1014800016461548844208D01448844205D040F2DC
:101490009721AFF2F01000F06EFD022D07D0012D64
:1014A00005D04FF42671AFF2042000F064FD3EB188
:1014B000012E05D040F29921AFF2182000F05BFD1B
:1014C000012E05D0606A0321A9430840606270BD07
:1014D000606A2843606270BD0080084000000340DD
:1014E000FD49884201D100207047FC49884201D162
:1014F00001207047FA49884201D1022070474FF01D
:10150000FF307047202202600821816101680907CD
:10151000FCD58261406800F0F800704701688906D8
:1015200001D520218161102101600821816170476E
:101530000268920601D520228261816008218161C2
:1015400001680907FCD5406800F0F80070470423E3
:10155000012A0BD083610822826102681207FCD540
:1015600082680A70406800F0F80070470360F2E794
:101570002DE9F04104460D46D74ED84FDFF8608381
:10158000B44207D0BC4205D0444503D0E021D5A0E9
:1015900000F0F1FCB44205D10E20FEF73AFEB0FB9C
:1015A000F5F50EE0BC4205D12620FEF732FEB0FB79
:1015B000F5F506E0444504D13420FEF72AFEB0FBE1
:1015C000F5F5680820612069281A6061BDE8F0819E
:1015D0002DE9F04104468846BF4DC04EC04FAC4295
:1015E00008D0B44206D0BC4204D04FF48471BDA0F0
:1015F00000F0C1FCAC4208D101218020FEF71CFEA6
:1016000002210E20FEF7D2FD14E0B44208D10121E0
:10161000C804FEF711FE02212620FEF7C7FD09E0EF
:10162000BC42D3D101218806FEF706FE02213420F8
:10163000FEF7BCFD41462046FFF79AFF6420A061FB
:10164000C4E72DE9F0410446A34DA44EA44FAC429B
:1016500008D0B44206D0BC4204D04FF49C71A1A083
:1016600000F089FC4020A061AC4205D1BDE8F0410A
:1016700000218020FEF7E0BDB44206D1BDE8F04174
:1016800000214FF40020FEF7D7BDBC429ED1BDE83B
:10169000F04100214FF08060FEF7CEBD96E770B5B7
:1016A00004460D46002D06D0012D04D040F25911FC
:1016B0008CA000F060FC884884420AD087488442AD
:1016C00007D08748844204D04FF4AD7185A000F064
:1016D00052FC4020012D01D0A06170BD206070BD82
:1016E00030B47E4C7E4A7C4B002911D0984203D105
:1016F00030BC0A2000F0DEBBA04203D130BC0B207E
:1017000000F0D8BB904215D130BC0C2000F0D2BB09
:10171000984203D130BC0A2000F0D7BBA04203D1CD
:1017200030BC0B2000F0D1BB904203D130BC0C2068
:1017300000F0CBBB30BC70472DE9F0470446204693
:10174000FFF7CEFE0546764E56F83510606800F07D
:10175000F800024648620823F82819D006EBC507AE
:101760000126D7F804C04FF00C094FF02008BCF157
:10177000000F10D0BCF1010F0BD10427402866D018
:101780004DDC082852D0102850D0382842D191E0A2
:10179000A361BDE8F087202839D006DC08280BD0EB
:1017A000102809D0182835D111E028280FD030286A
:1017B0002DD038282ED12EE0C4F81880486898B172
:1017C000886888B108684000A060A361E1E7D1E9BA
:1017D0000202824208D2486830B1805CA060C868CA
:1017E000401CC860A361D4E77E60486950B10869B5
:1017F00040B1886800B34868F0B1C4F80080C4F80C
:101800001890C6E7486A40F4806048628AE042F473
:101810000070486251E042F4807048624DE0482810
:1018200044D050281DD0582847D12FE0C4F8188044
:10183000086938B1486928B1086806EB4000A06023
:10184000A361A6E7486A40F4806048626AE0D1E993
:101850000502401E824201D2276000E0A761A36119
:1018600097E7086940B1D1E90552AA4204D2A568B8
:1018700085548869401C8861D1E90502401E824276
:1018800001D2276000E0A761A36182E70A6942B143
:10189000D1E90530984204D2A36813548869401CEA
:1018A0008861486A40F4806048623BE042F400701E
:1018B000486202E042F480704862D1E90720904219
:1018C00030D20020C860C4F80080C4F81890086ABC
:1018D000401C08625DE7000000C0014000C00540F8
:1018E00000000A402E2E5C4C696272617269657359
:1018F0005C4C4350313736385F53746450657269BD
:1019000070685F4472697665725C736F7572636547
:101910005C6C7063313778785F6932632E630000E6
:1019200010C0072000212046FFF7DAFE2046FFF70F
:10193000F5FDFE4840F825602BE72DE9F04104460F
:101940002046FFF7CDFD0746F849183951F83750C2
:10195000606800F0F800A8610826F82803D010F0AD
:10196000070F02D053E0A66130E6C0100C38042106
:1019700014284CD2DFE800F00D4B0D4B101E101E4A
:1019800020374B37454B4B4B4B4B4B0A2160A661E5
:101990001CE62160A66119E6D5E90420904206D232
:1019A000EA6822B1A36813546869401C6861216029
:1019B000A6610BE6A66109E600212046FFF790FE2E
:1019C000A6614FF480302168090704D52046BDE8A0
:1019D000F041012184E6401E0028F4D1A86940F4BA
:1019E0008060A86113E0D5E90102824206D228682E
:1019F00020B1805CA060A868401CA8602160A6613E
:101A0000E4E52160A661A86940F48060A861002136
:101A10002046FFF765FE2C20A061C44901200C314F
:101A200041F82700D2E52DE9F84307460C464FF070
:101A30000008C4F80C80C4F81880C4F82480002A78
:101A400004D0012A78D00020BDE8F883C4F82080B3
:101A500066682569C4F80C80C4F818803846FFF71A
:101A600051FD082809D0102807D0216A491C21629D
:101A7000E2699142ECD960627FE0A06860B360687F
:101A800050B320784006010E3846FFF751FD01465D
:101A900018291DD0206A401C2062E2699042D7D9E3
:101AA00041F40070606268E031783846FFF740FD2D
:101AB000282809D0216A491C2162E2699142C7D9CC
:101AC00040F40070606258E0761CE068401CE06002
:101AD000D4E902108842E7D3A068A0B1606890B151
:101AE000606980B1206970B13846FFF70BFD0828A6
:101AF00009D0102807D0216A491C2162E26991426D
:101B0000A6D9606239E06069E0B32069D0B320787B
:101B1000012101EB4000C1B23846FFF709FD014643
:101B2000402937D0206A401C2062E26990428FD958
:101B300041F40070606220E035E0401E81420ED228
:101B4000012269463846FFF702FD50281BD0216A62
:101B5000491C2162E26991428CD960620DE0002249
:101B600069463846FFF7F3FC58280CD0216A491C17
:101B70002162E269914292D960623846FFF7CEFC59
:101B8000002061E70AE09DF8000005F8010BA0695C
:101B9000401CA061D4E905018142CED33846FFF74D
:101BA000BDFC012050E73846FFF79AFCC0B2009018
:101BB0005E49183941F8304001EBC000C0F804809C
:101BC0000820B8612020386001213846FFF788FDE1
:101BD000012039E72DE9F04704460D46D5F800C04D
:101BE000D5F80C800020A8606861A8612826042729
:101BF000002A02D0012A60D0CBE52760A66100212F
:101C000000200826226812074AD50021626802F0E7
:101C1000F80313F0070F3ED1DA100C3A142A3AD227
:101C2000DFE802F00D390D39101F101F212539256D
:101C3000343939393939390A2760A661E2E7276032
:101C4000A661DFE7D5E904924A4507D2EA682AB1DE
:101C5000A26808F8012B6A69521C6A612760A661B4
:101C6000D0E7A661CEE7A66101210020CAE7D5E949
:101C700001924A4507D22A682AB11CF8012BA260BA
:101C8000AA68521CAA602760A661BBE72760A6610C
:101C900001210020B6E7A661A761AB61002078E5CD
:101CA0000029AFD00246401CB2F5803FAAD9A761F7
:101CB00043F48060A86101206BE52046FFF710FC2B
:101CC0001A49183941F8305001EBC0000122426036
:101CD0002760A66101212046FFF702FD012058E59B
:101CE00070B504460D46124884420BD01148844218
:101CF00008D01148844205D040F2A141AFF21C4007
:101D000000F039F92878032805D940F2A241AFF252
:101D10002C4000F030F9A87838B1012805D040F205
:101D2000A341AFF2404000F026F907E028C00720A9
:101D300000C0014000C0054000000A40A87801280A
:101D400012D00020697840EA4100C0B2297869B118
:101D5000012911D0022915D0032904D1A062E87805
:101D600000F0FE00E06370BD0120EBE7E060E87882
:101D700000F0FE00206370BD2062E87800F0FE00F5
:101D8000606370BD6062E87800F0FE00A06370BD23
:101D900070B504460E461546514884420BD0514852
:101DA000844208D05048844205D040F2D541AFF279
:101DB000CC4000F0E0F83DB1012D05D040F2D74114
:101DC000AFF2E04000F0D7F8012D05D0E06907211F
:101DD000B1430840E06170BDE0693043E06170BD2F
:101DE00070B504460D463E4884420BD03D488442BF
:101DF00008D03D48844205D040F2F141AFF21C507A
:101E000000F0B9F83DB1012D05D040F2F241AFF23A
:101E10002C5000F0B0F8012D09D0E06900F0060068
:101E2000E0612C20A06131490020086070BDE069AC
:101E300040F00100E061042020602820A061F2E76A
:101E400010B50446264884420BD02648844208D068
:101E50002548844205D040F21451AFF2785000F08A
:101E60008AF8E06AC0B210BD30B5034600200824ED
:101E70009C61DD6A1D4C2368CD545B1C236093423A
:101E800000D3012030BD10B5FFF72AFB184A52F8E5
:101E90002010002342F82030084610BD10B5FFF78F
:101EA0001FFB134A0C3252F82010002342F8203056
:101EB000084610BD00F01F0201219140400980003A
:101EC00000F1E020C0F80011704700F01F0201216E
:101ED00091404009800000F1E020C0F88011704777
:101EE00000C0014000C0054000000A4004C00720B7
:101EF00028C007201FB500F044F91FA12448FEF7B1
:101F0000D7F91F274FF6FF73214A1E212020009783
:101F100000F09CFD00260124CDE901464FF6E0705B
:101F200002256E2303901A463C2100950A2000F0FA
:101F3000D9FDCDE901464FF4FC606E2303901A46AB
:101F40003C210095782000F0CDFDCDE900546E23B2
:101F50001A46AA210A20CDE9026700F0C3FD00F06D
:101F600045FE00F097FF00F0F5FF14214FF4FA60F2
:101F700000F0CDFFFEE7FEE74D6F6E2073757065D4
:101F800072207465787465202020202020000000D5
:101F900040C007200002401E411CFCD1704770B5B4
:101FA0004FF47004012221460020FEF744FB012279
:101FB0004FF0607529461046FEF73DFB2146002094
:101FC000FEF73AFB2946BDE870400120FEF734BB1E
:101FD000222001F071BA70B5FF4C4FF48006E66123
:101FE000B110A16101F01AFA7500E561012001F05C
:101FF0005BFAA561A66170BDF84800887047C0F320
:102000004511C20AC00200EB4110104480B2704773
:1020100070B504460D46F1480088A0F5094189399C
:1020200007D1A1B24E2001F05FFAA9B24F2001F012
:102030005BFAA1B2202001F057FAA9B2BDE87040C6
:10204000212001F051BA10B5FFF7E2FFFFF7C0FF02
:1020500001F0F8F9BDE8104001F0F4B970B506469A
:10206000002400210846FFF7D3FFFFF7B1FF4FF42C
:1020700096353046FFF7AFFF641CAC42F9D370BD14
:1020800010B5D6480088A0F50941893917D041F22A
:102090003001032001F028FA00210846FFF7B8FFBD
:1020A000FFF796FF45F25550FFF795FF4AF6AA2035
:1020B000FFF791FF0021BDE810400846A8E746F26F
:1020C0003001112001F010FAE6E72DE9F041C34F8D
:1020D00048F689163888B04204D041F23001032016
:1020E00001F002FA002500210846FFF791FFFFF7F3
:1020F0006FFF00244FF496382846FFF76CFF6D1CE5
:10210000ADB2641C4445F7D3002438884FF4A0775F
:10211000A0F51341203920D0A0F5134125391CD05A
:10212000A0F51341283918D0A0F58A41313901D0E2
:10213000B04210D10026002531462846FFF783FF24
:102140002146641CA4B2884205D16D1CF02DF3D346
:10215000761CBE42EFD3BDE8F08100260025314653
:102160002846FFF770FFFFF74AFF2146641CA4B220
:102170008842F0D16D1CF02DF1D3761CBE42EDD318
:10218000E9E72DE9F05FFFF70AFF40F2DC50FFF7C7
:1021900001FF002001F090F901F054F98F49088007
:1021A00049F2253144F2315CCD1C47F2837349F288
:1021B000203A4FF4134B48F6891260450BD09842F1
:1021C00009D0504507D0884205D0A84203D05845D1
:1021D00001D090427ED14FF480774FF4E06840F216
:1021E000072940F23F144FF48876884201D0A84274
:1021F00071D11021E72001F077F90121002001F0D1
:1022000073F93946012001F06FF94146022001F0CF
:102210006BF941F22801032001F066F90021042046
:1022200001F062F94946082001F05EF90021092019
:1022300001F05AF900210A2001F056F901210C2081
:1022400001F052F900210D2001F04EF900210F207C
:1022500001F04AF90021102001F046F90721112070
:1022600001F042F90021122001F03EF90021132073
:1022700001F03AF90F20FFF78DFE41F29051102046
:1022800001F032F940F22721112001F02DF90F2041
:10229000FFF780FE9C21122001F026F90F20FFF7A6
:1022A00079FE4FF4C851132001F01EF92321292093
:1022B00001F01AF90E212B2001F016F90F20FFF77B
:1022C00069FE0021202001F00FF90021212001F0FA
:1022D0000BF901E089E393E00F20FFF75BFE072194
:1022E000302001F001F940F20771312001F0FCF8D3
:1022F0000621322001F0F8F840F20471352001F097
:10230000F3F841F60471362001F0EEF8042137208D
:1023100001F0EAF80021382001F0E6F840F20671F9
:10232000392001F0E1F840F201713C2001F0DCF8C5
:102330000F213D2001F0D8F80F20FFF72BFE0021E0
:10234000502001F0D1F8EF21512001F0CDF800210B
:10235000522001F0C9F82146532001F0C5F84FF48E
:102360002741602001F0C0F80121612001F0BCF894
:1023700000216A2001F0B8F80021802001F0B4F8B3
:102380000021812001F0B0F80021822001F0ACF89A
:102390000021832001F0A8F80021842001F0A4F896
:1023A0000021852001F0A0F81021902001F09CF878
:1023B0000021922001F098F80321932001F094F875
:1023C0003146952001F090F80021972001F08CF81B
:1023D0000021982004E0000000C009200CC0072064
:1023E00001F082F840F23311072001F07DF800215E
:1023F000202001F079F80021212001F075F8EBE2AE
:1024000040F20225504501D058457DD100210846B3
:1024100001F06AF80021012001F066F8414602202F
:1024200001F062F841F21801032001F05DF800218B
:10243000042001F059F82946082001F055F8002140
:10244000092001F051F800210A2001F04DF8012186
:102450000C2001F049F800210D2001F045F8002181
:102460000F2001F041F80F20FFF794FD40F2011119
:10247000072001F039F80F20FFF78CFD4FF486514B
:10248000102001F031F80721112001F02DF831461C
:10249000122001F029F84FF43061132001F024F8E4
:1024A0000021292001F020F844F210012B2001F036
:1024B0001BF80021502001F017F8EF21512001F006
:1024C00013F80021522001F00FF82146532001F0AB
:1024D0000BF84FF42741602001F006F8012161203C
:1024E00001F002F800216A2000F0FEFF00218020A8
:1024F00000F0FAFF0021812000F0F6FF0021822089
:1025000000F0F2FF002100E028E0832000F0ECFF63
:102510000021842000F0E8FF0021852000F0E4FF86
:102520001021902000F0E0FF0021922000F0DCFF5D
:102530000121932000F0D8FF3146952000F0D4FF10
:102540000021972000F0D0FF0021982000F0CCFF60
:1025500040F27311072000F0C7FF3DE241F2300A5C
:102560004FF4837B60457CD10121002000F0BCFF4B
:102570004FF4C561102000F0B7FF0621122000F0D3
:10258000B3FF40F63221132000F0AEFF40211120AE
:1025900000F0AAFF5021152000F0A6FF16211220FE
:1025A00000F0A2FF0F20FFF7F5FC45F2606110205C
:1025B00000F09AFF0F20FFF7EDFC42F64E211320AA
:1025C00000F092FF0021012000F08EFF4FF44071D7
:1025D000022000F089FF5146032000F085FF2946C4
:1025E000082000F081FF00210A2000F07DFF00217B
:1025F000302000F079FF40F20241312000F074FFFA
:102600005946322000F070FF4146332000F06CFF45
:102610004FF48271342000F067FF40F20131352021
:1026200000F062FF40F20771362000F05DFF40F2DB
:102630000531372000F058FF4FF40271382000F0C8
:1026400053FF40F60B71392000F04EFF0F20FFF7CB
:10265000A1FC0221412000F047FF4FF427416020F8
:1026600000E033E000F040FF0121612000F03CFF7A
:1026700040F21911902000F037FF4FF4857192203D
:1026800000F032FF0421932000F02EFF3946A020F5
:1026900000F02AFF0F20FFF77DFC0F20FFF77AFCE8
:1026A0000F20FFF777FC0F20FFF774FC40F2331187
:1026B000072000F019FF0F20FFF76CFC0021A0207D
:1026C00000F012FF1420FFF765FC85E140F20236AE
:1026D00098427DD10121FF2000F006FF0821F32060
:1026E00000F002FF3946012000F0FEFE41460220C4
:1026F00000F0FAFE5146032000F0F6FE31460820B5
:1027000000F0F2FE4946082000F0EEFE002109200C
:1027100000F0EAFE00210A2000F0E6FE0021102071
:1027200000F0E2FE0521112000F0DEFE0021122063
:1027300000F0DAFE0021132000F0D6FE1420FFF78F
:1027400029FC41F2B021102000F0CEFE1420FFF74A
:1027500021FC0721112000F0C7FE1420FFF71AFC0E
:102760008B21122000F0C0FE1420FFF713FC4FF461
:10277000B851132000F0B8FE1420FFF70BFC222103
:10278000292000F0B1FE0021302000F0ADFE40F223
:102790000771312000F0A8FE40F20551322000F010
:1027A000A3FE40F20711352000F09EFE08213620DE
:1027B00000F09AFE0021372000F096FE29463820CE
:1027C00000F092FE5946392000F08EFE294600E0C6
:1027D00034E03C2000F088FE4FF481613D2000F0A1
:1027E00083FE1420FFF7D6FB0021502000F07CFE72
:1027F000EF21512000F078FE0021522000F074FEFD
:102800002146532000F070FE4FF42741602000F075
:102810006BFE0121612000F067FE3321902000F063
:1028200063FE0B212B2000F05FFE40F233110720E6
:1028300000F05AFE1420FFF7ADFBCDE09042FCD132
:102840002121072000F050FE0121002000F04CFE65
:102850002321072000F048FE0021102000F044FE54
:1028600040F6B830FFF796FB3321072000F03CFE1E
:1028700046F27001112000F037FE4FF4C0610220D3
:1028800000F032FE40F60401032000F02DFE00218E
:102890000C2000F029FE40F60C010D2000F024FE73
:1028A0004FF424510E2000F01FFEB8211E2000F02E
:1028B0001BFE42F63F31012000F016FE00211020E1
:1028C00000F012FE0021052000F00EFE002106207F
:1028D00000F00AFE4EF61C71162000F005FE0321E2
:1028E000172000F001FE40F23321072000F0FCFD2C
:1028F000C0210B2000F0F8FD00210F2000F0F4FDB6
:102900000021412000F0F0FD0021422000F0ECFD0C
:102910000021482000F0E8FD2146492000F0E4FDB8
:1029200000214A2000F0E0FD00214B2000F0DCFDFA
:102930004FF46F41442000F0D7FD0021452000F006
:10294000D3FD2146462000F0CFFD40F20771302034
:1029500000F0CAFD4FF401742146312000F0C4FD9F
:102960002146322000F0C0FD40F2025529463320B6
:1029700000F0BAFD691D342000F0B6FD2146352077
:1029800000F0B2FD2146362000F0AEFD294637208A
:1029900000F0AAFD31463A2000F0A6FD31463B206A
:1029A00000F0A2FD0021232000F09EFD0021242044
:1029B00000F09AFD4FF40041252000F095FD002124
:1029C0004F2000F091FD00214E2000F08DFDFFF71B
:1029D00057FB1F20FFF742FBFFF752FBFFF775FB8A
:1029E000BDE8F05F1F20FFF739BBBDE8F09F000096
:1029F0002DE9F05F8346DDF828A00F4698460026B3
:102A00001D48203A00EB021919F80650394658467D
:102A1000FFF7FEFA7F1CBFB2FFF7DAFA00242806A0
:102A200004D51FFA88F0FFF7D6FA03E01FFA8AF000
:102A3000FFF7D1FA6806050E641CE4B2082CEED349
:102A4000761CF6B2102EDFD3BDE8F09F2DE9F843D7
:102A500005460F4614469846089E08E04346394608
:102A600028460096FFF7C4FF641C0835ADB22278F3
:102A7000002AF3D1BDE8F883FA3400002DE9F047CD
:102A80000646DDE9080791469846762802D00D46AD
:102A9000884424E00D4689440EE029463046FFF77D
:102AA000B7FAFFF795FA002403E03846FFF793FAE8
:102AB000641C4445F9D96D1CA945EED2BDE8F087E8
:102AC00029463046FFF7A4FAFFF782FA002403E014
:102AD0003846FFF780FA641C4C45F9D96D1CA845AF
:102AE000EED2EBE72DE9FC5F81468A46DDE90C5129
:102AF000DDE90E40934698466826012907D1CDE9C5
:102B0000006043465A4651464846FFF7B7FFCDE9B5
:102B100000642B465A4651464846FFF7AFFF7627DA
:102B2000CDE9007409EB0B00401B2B464246514691
:102B3000FFF7A4FF0AEB0800CDE90064411B2B4618
:102B40005A464846FFF79AFFCDE900742B464246A5
:102B500051464846FFF792FFBDE8FC9F11B581B092
:102B6000C34C0120206101A8206000222146C148F9
:102B7000FEF7B5FAC0B220B1C4F808D09DF8000045
:102B80001CBD00201CBD30B589B000248DF81C4050
:102B900002208DF81E008DF81F408DF82040072080
:102BA0008DF81D0007A8FDF759FE08258DF81D506A
:102BB00007A8FDF753FE09208DF81D0007A8FDF7B3
:102BC0004DFE01950294039404940594AA4806903E
:102BD00001A8FEF7F8F9A74C01A92046FEF796F9DF
:102BE00001212046FEF7F9F909B030BD1CB50020DF
:102BF0008DF802008DF804008DF8030013218DF884
:102C000001108DF800006846FDF728FE00224FF401
:102C1000002421461046FDF790FC012221460020A9
:102C2000FDF7B3FC012240210020FDF786FC402186
:102C30000020FDF792FCFFF7A6FF012240210020B3
:102C4000FDF77BFC40210020FDF78FFC8020FFF783
:102C500085FF012240210020FDF76FFC402100206C
:102C6000FDF77BFC1CBD2DE9F04395B010AE0BAD1C
:102C700085E00024012240210020FDF75EFC402178
:102C80000020FDF772FCD020FFF768FF0020FFF75F
:102C900065FF4006000D26F814009020FFF75EFF48
:102CA00036F8141041EAD00026F814000020FFF78F
:102CB00055FF4006000D25F814000020FFF74EFFD9
:102CC00035F8141041EAD00025F814008020FFF7F1
:102CD00045FF012240210020FDF72FFC402100206C
:102CE000FDF73BFC641C0A2CC4D34FF6FF731C4653
:102CF00000274FF0000C4FF000084FF000090020B3
:102D000036F810209A4200D21346BA4200D917462C
:102D1000904435F81010A14200D20C46614500D90C
:102D20008C468944401C0A28EAD3A8EB0300C01B48
:102D3000A9EB0401A1EB0C01C0F3CF024F480280C4
:102D40004F4CC80820804FA106A8FDF7B1FA228891
:102D50004EA101A8FDF7ACFA1F2447F6FF774FF408
:102D600091783B4606AA414600200094FFF76EFE8C
:102D70003B4601AA414678200094FFF767FE0020F9
:102D8000FDF7FBFB00037FF574AF15B0BDE8F083E2
:102D90002DE9F0438BB0002406AD01AE01224021A5
:102DA0000020FDF7CAFB40210020FDF7DEFBD0200C
:102DB000FFF7D4FE0020FFF7D1FE4006000D25F8F6
:102DC00014009020FFF7CAFE35F8141041EAD00035
:102DD00025F814000020FFF7C1FE4006000D26F87C
:102DE00014000020FFF7BAFE36F8141041EAD000B4
:102DF00026F814008020FFF7B1FE012240210020B8
:102E0000FDF79BFB40210020FDF7A7FB641C0A2C6B
:102E1000C4D34FF6FF731C4600274FF0000C4FF051
:102E200000084FF00009002035F810209A4200D227
:102E30001346BA4200D91746904436F81010A14202
:102E400000D20C46614500D98C468944401C0A28B2
:102E5000EAD3A8EB0300C01BA9EB0401A1EB0C0112
:102E6000064AC0081080C808054908800BB08DE7E5
:102E700060C0072000000340801A060008C0072039
:102E80000AC00720583A202530346400593A2025DA
:102E9000303464001CB500208DF800001B218DF833
:102EA000011001218DF802108DF803008DF8040047
:102EB0006846FDF7D3FC1C208DF801006846FDF73D
:102EC000CDFC234C21492046FEF782FB0121204600
:102ED000FEF7E5FB1CBD00B58DB0019000F4E0608D
:102EE000A02141EAD0104008029001A803900121DE
:102EF0000491002005900790069008900A9109918E
:102F0000002202A91248FEF78EFD0DB000BD00B5EB
:102F10008DB08DF804008DF8051000F4E060A0215C
:102F200041EAD0104008029001A8039002200490CA
:102F30000020059007900690089001200A900990C3
:102F4000002202A90248FEF76EFDDEE740420F00B4
:102F500000C00140F0B587B001248DF800401C206E
:102F60008DF8010003268DF8026000258DF80350CE
:102F70008DF804506846FDF771FC8DF8144042F25C
:102F8000107006904FF0402705AA00213846FDF743
:102F900068FD8DF80850642004908DF80C608DF861
:102FA0000B408DF80A508DF8094002A93846FDF70C
:102FB0004CFE01213846FDF70CFE05490220086051
:102FC00007B0F0BD00214FF04020FDF7F4BC000039
:102FD00000E100E053EA020C00F069802DE9F04BBB
:102FE0004FF00006002B1FBFB3FA83F503FA05F478
:102FF00024FA05F65E4012BF1643B2FA82F502FAD1
:1030000005F4C5F120051EBF22FA05FC44EA0C04B4
:10301000203556EA044C4FEA144418BF641C4FF0A4
:1030200000084FF00009904271EB030C39D30029DE
:1030300019BFB1FA81F701FA07F6B0FA80F700FA82
:1030400007F6C7F120071EBF20FA07FC46EA0C0668
:103050002037B6FBF4FCA7EB0507103F07F01F0B6A
:10306000CBF120060CFA0BFB2CFA06F644BFB34654
:103070000026202FA4BF5E464FF0000B5BEA060C33
:1030800008BF4FF0010B19EB0B09ABFB027C48EBBF
:103090000608C01B06FB02CC0BFB03CC71EB0C013A
:1030A000C1E70B46024641464846BDE8F08B13B5E2
:1030B0004FF000004FF00001AFF30080BDE81C406E
:1030C000704770B5044685690068C10601D5302691
:1030D00000E02026C00707D070BDD4E901213046AA
:1030E0009047206A401C20626D1EF6D570BD70B5F9
:1030F000044685690078C00707D170BDD4E9012175
:1031000020209047206A401C20626D1EF6D570BDBD
:103110002DE9F0410646002410687529314616A5B0
:1031200010D0AFF30080002802DA404213A507E078
:1031300031688A0701D512A502E0490704D511A517
:10314000012401E0AFF3008000210A2206F12407E8
:1031500009E0B0FBF2FCB0FBF2F302FB1C003030E4
:1031600078541846491C0028F3D123462A46304695
:10317000BDE8F04100F0A4B8000000002D00000000
:103180002B000000200000002DE9F05F8946044676
:103190004FF0000ADFF824B1FB44C0F820A020461D
:1031A000E168884700287DD0252806D0D4E9012190
:1031B0009047206A401C2062F1E700255F462046C8
:1031C000E16888472028064607DB312E05D2B8196A
:1031D00010F8200C08B10543F1E7A80701D525F048
:1031E0000405C4F81CA00027C4F818A02A2E09D092
:1031F000304600F00BF938B304EB8708303EC8F8CE
:10320000186019E059F8041B204604EB870291610D
:10321000E1688847012F064618D1E069002820DAC6
:1032200025F020051DE0D8F8180000EB800006EB23
:1032300040003038C8F818002046E1688847064644
:1032400000F0E4F80028EED1012F0AD02E2E08D18C
:103250002046E16888477F1C0646022F45F020057E
:10326000C4DBA069002803DA404245F00105A061F3
:10327000E80701D025F01005A6B1A6F141001928F4
:1032800002D8203645F400654A463146204625607E
:103290004D46FCF755FF60B1012807D0ED1D25F024
:1032A000070000E007E000F1080978E705F10409EC
:1032B00075E730467AE7206ABDE8F09F4E090000C6
:1032C0002DE9F0470D4699469246044600F1240840
:1032D0000168880604D5E06921F01001216000E052
:1032E0000120A84201DD471B00E00027A1697A19EF
:1032F00002EB0900081AA0612078C00602D420461B
:10330000FFF7DFFE002608E0D4E901211AF80600E5
:103310009047206A401C761C20624E45F4DB2078E2
:10332000C0060AD52046FFF7CCFE06E0D4E901210D
:1033300030209047206A401C2062381EA7F1010708
:10334000F4DC07E0D4E9012118F805009047206A71
:10335000401C2062281EA5F10105F3DC2046FFF782
:10336000C6FE2078000602D50220BDE8F0870120C5
:10337000FBE7000001694A1C02610878704700B54C
:103380008FB0CDE901310021059105497944CDE99E
:10339000031011466846FFF7F7FE0FB000BD0000AE
:1033A000E5FFFFFF7546FCF7A1FFAE460500694645
:1033B000534620F00700854618B020B5FCF7E6FE1E
:1033C000BDE820404FF000064FF000074FF0000826
:1033D0004FF0000B21F00701AC46ACE8C009ACE8A7
:1033E000C009ACE8C009ACE8C0098D46704710B50B
:1033F0000446AFF300802046BDE81040FCF7B2BEA3
:1034000001491820ABBEFEE72600020030380A282A
:1034100001D20120704700207047000008490A6C63
:1034200042F0FF020A644FF080728A635200CA635E
:10343000486592108A63CA63000A486570470000B5
:1034400000C009202DE9F047164C4FF48006E661D4
:10345000B010A061C000A0618710E761012000F0FA
:1034600023F8206C20F0FF0020644FF08078C4F82F
:103470003C804FF00079C4F83C90322000F014F802
:1034800094F85450C4F83890322000F00DF894F8B5
:10349000540040EA0520C4F83880A761A661BDE861
:1034A000F087000000C0092008B500900098411E78
:1034B0000091FBD208BD000070B50A4C4FF48005A6
:1034C000E561A910E1614900A161FFF7A7FF46206E
:1034D000FFF7EAFF6E00E6610120FFF7E5FFA66156
:1034E000A56170BD00C0092010B50C46FFF7E4FFD0
:1034F0002046BDE81040FEF76EBD00000000000051
:103500000000000000000000000000000000183C67
:103510003C3C181800181800000000000000666607
:1035200066000000000000000000000000003636C9
:103530007F3636367F3636000000000018183C66AD
:103540006030180C06663C18180000000070D8DACD
:10355000760C18306E5B1B0E000000000000386C0B
:103560006C38606F66663B000000000000001818B1
:1035700018000000000000000000000000000C180F
:1035800018303030303018180C00000000003018AF
:10359000180C0C0C0C0C1818300000000000000077
:1035A000361C7F1C360000000000000000000000F8
:1035B00018187E181800000000000000000000002D
:1035C000000000001C1C0C1800000000000000009F
:1035D000007E00000000000000000000000000006D
:1035E000000000001C1C0000000000000006060C8B
:1035F0000C1818303060600000000000001E3337E7
:1036000037333B3B331E000000000000000C1C7CE5
:103610000C0C0C0C0C0C000000000000003C66665A
:10362000060C1830607E000000000000003C66665A
:10363000061C0666663C00000000000000303036C4
:103640003636667F0606000000000000007E6060DF
:10365000607C06060C78000000000000001C18309A
:103660007C666666663C000000000000007E060C7A
:103670000C1818303030000000000000003C666676
:10368000763C6E66663C000000000000003C66660A
:1036900066663E0C18380000000000000000001CA8
:1036A0001C0000001C1C0000000000000000001CAA
:1036B0001C0000001C1C0C180000000000060C1868
:1036C000306030180C060000000000000000000010
:1036D0007E007E0000000000000000000060301846
:1036E0000C060C183060000000000000003C66660C
:1036F0000C1818001818000000000000007EC3C35A
:10370000CFDBDBCFC07F00000000000000183C666C
:1037100066667E666666000000000000007C6666E5
:10372000667C6666667C000000000000003C666601
:1037300060606066663C00000000000000786C6617
:10374000666666666C78000000000000007E6060BF
:10375000607C6060607E000000000000007E6060B1
:10376000607C60606060000000000000003C6666F5
:1037700060606E66663E00000000000000666666DF
:10378000667E66666666000000000000003C181851
:1037900018181818183C0000000000001E0C0C0C33
:1037A0000C0CCCCCCC780000000000000066666CED
:1037B0006C786C6C66660000000000000060606061
:1037C00060606060607E000000000000006363775E
:1037D0006B6B6B6363630000000000000063637346
:1037E0007B6F67636363000000000000003C666657
:1037F00066666666663C000000000000007C666647
:10380000667C60606060000000000000003C66664E
:1038100066666666663C0C0600000000007C666614
:10382000667C6C666666000000000000003C666016
:1038300030180C06663C000000000000007E1818DE
:1038400018181818181800000000000000666666B6
:1038500066666666663C00000000000000666666FC
:10386000666666663C180000000000000063636343
:103870006B6B6B3636360000000000000066663465
:1038800018182C6666660000000000000066666678
:10389000663C18181818000000000000007E06069C
:1038A0000C183060607E000000000000003C3030EA
:1038B00030303030303030303C000000006060305C
:1038C0003018180C0C06060000000000003C0C0C20
:1038D0000C0C0C0C0C0C0C0C3C0000183C66000092
:1038E00000000000000000000000000000000000D8
:1038F0000000000000000000FF000038180C00006D
:103900000000000000000000000000000000003C7B
:1039100006063E66663E0000000000000060607C17
:1039200066666666667C0000000000000000003CE1
:1039300066606060663C0000000000000006063E15
:1039400066666666663E0000000000000000003CFF
:1039500066667E60603C000000000000001E3030A3
:10396000307E303030300000000000000000003EAB
:1039700066666666663E06067C0000000060607C47
:10398000666666666666000000000000181800782B
:1039900018181818187E0000000000000C0C003CDD
:1039A0000C0C0C0C0C0C0C0C780000000060606619
:1039B000666C786C666600000000000000781818DD
:1039C00018181818187E0000000000000000007E83
:1039D0006B6B6B6B6B630000000000000000007CF1
:1039E0006666666666660000000000000000003C37
:1039F00066666666663C0000000000000000007C11
:103A000066666666667C6060600000000000003EDE
:103A100066666666663E06060600000000000066F2
:103A20006E70606060600000000000000000003EFA
:103A300060603C06067C0000000000000030307E24
:103A400030303030301E0000000000000000006602
:103A500066666666663E00000000000000000066C4
:103A6000666666663C180000000000000000006307
:103A70006B6B6B6B363600000000000000000066C8
:103A8000663C183C6666000000000000000000660E
:103A900066666666663C0C18F00000000000007E5A
:103AA000060C1830607E000000000000000C1818A2
:103AB000183060301818180C000000000018181892
:103AC00018181818181818181800000000301818BE
:103AD000180C060C18181830000000000071DB8E5E
:103AE00000000000000000000000040000080000CA
:103AF0000000000000020001000010002C3B00004C
:103B000000C0072010000000080100002C3B00004E
:103B10000000001000020000240100003C3B0000F7
:103B200010C00720C80000002401000000E1F505D6
:0C3B300000000000000000000000000089
:04000005000000CD2A
:00000001FF
